:100000000C9495000C94BD000C94BD000C94BD00A4
:100010000C94BD000C94BD000C94BD000C94BD006C
:100020000C94BD000C94BD000C943A040C94AC04E8
:100030000C94BD000C94BD000C94BD000C94BD004C
:100040000C94BD000C94BD000C94BD000C94BD003C
:100050000C94BD000C94BD000C94BD000C94DC0607
:100060000C94BD000C94BD000C94BD000C94BD001C
:100070000C94BD000C94BD000C94BD000C94BD000C
:100080000C94BD000C94BD000C94BD000C94BD00FC
:100090000C94BD000C94BD000C94BD000C94BD00EC
:1000A0000C94BD000C94BD000C94BD000706050423
:1000B0000100080A0B0C0D09080B000202020100E6
:1000C00009040000010202000005240010010524BB
:1000D000010101042402060524060001070581032D
:1000E00010004009040100020A0000000705020296
:1000F00040000007058302400000040309041201C8
:100100000002EF020140412341800001010203018E
:1001100041726475696E6F204C4C43004172647586
:10012000696E6F2059756E002D0811241FBECFEF28
:10013000DAE0DEBFCDBF11E0A0E0B1E0E4E3F3E13F
:1001400002C005900D92A832B107D9F721E0A8E2CC
:10015000B1E001C01D92A939B207E1F710E0C5E98D
:10016000D0E004C02197FE010E948D09C439D10757
:10017000C9F70E9426070C9498090C940000FC0112
:1001800080914801811103C08FEF9FEF08959FB7C1
:10019000F89482E08093E9002091F20030E012169A
:1001A000130614F421E030E02115310559F02898A8
:1001B00084E6809347018091F10080838091F20072
:1001C000882319F09FBFC90108958BE68093E8004A
:1001D000F9CF2FB7F89483E08093E9009091E8007D
:1001E000892F807295FF04C09091F20080E4891BF2
:1001F0002FBF089580913F0181110DC082E080934F
:100200003B0184E080933C0110923E0110923D013D
:1002100081E080933F018BE391E0089540913301A9
:10022000509134012091310130913201421753072E
:10023000B4F49091E8009570E1F39091E80092FD9C
:1002400019C08093F100809133019091340101969F
:100250008F739927892B19F48EEF8093E800809192
:1002600033019091340101969093340180933301CE
:1002700081E0089580E00895CF92DF92EF92FF929F
:100280000F931F93CF93DF931F92CDB7DEB7182F35
:10029000062FE42E862F880F8E5F99830E940E0111
:1002A00083E00E940E01F12EC12E9981D92E8C2D52
:1002B0008F19801798F4F601E7FE02C0849101C0FF
:1002C00080810E940E01182F80E00E940E01812380
:1002D000FFEFCF1ADF0A8111EACF01C081E00F9052
:1002E000DF91CF911F910F91FF90EF90DF90CF9012
:1002F0000895DF92EF92FF920F931F93CF93DF93B6
:10030000D82E8A017B01E40EF51EEB01CE15DF0528
:1003100071F0D7FE03C0FE01849101C088810E9464
:100320000E0121968111F2CF8FEF9FEF01C0C8011E
:10033000DF91CF911F910F91FF90EF90DF90089583
:100340000F931F93CF93DF931F92CDB7DEB782E059
:10035000898342E450E068EB70E080E80E94790114
:100360000E94FA00DC0112960D911C911397011561
:10037000110569F0D801ED91FC910280F381E02D27
:10038000BE016F5F7F4FC801099597FF07C0898144
:100390000F90DF91CF911F910F910895F801008583
:1003A0001185E5CF615030F02091F100FC012083F0
:1003B0000196F8CF289884E6809347010895CF925C
:1003C000DF92EF92FF920F931F93CF93DF936C0115
:1003D0007A018B01C0E0D0E0CE15DF0589F0D801AD
:1003E0006D918D01D601ED91FC910190F081E02D90
:1003F000C6010995892B11F47E0102C02196ECCF2C
:10040000C701DF91CF911F910F91FF90EF90DF9087
:10041000CF900895CF93DF931F92CDB7DEB7698356
:10042000DC01ED91FC910280F381E02D41E050E090
:10043000BE016F5F7F4F09950F90DF91CF910895B7
:1004400083E08093E9008091F200882319F08AE329
:100450008093E80008950E94E90090E00895CF930A
:10046000DF931F92CDB7DEB7FC018485958597FD9C
:1004700005C02FEF3FEF358724870BC0CE010196D3
:100480000E94BF00019719F4898190E002C08FEFAC
:100490009FEF0F90DF91CF9108950F931F93CF930C
:1004A000DF931F92CDB7DEB78C01FC018485958563
:1004B00097FF0EC0CE0101960E94BF00019719F46C
:1004C000298130E002C02FEF3FEFF8013587248704
:1004D000F801848595850F90DF91CF911F910F9141
:1004E0000895FC018485958597FD0BC09FB7F8940E
:1004F00082E08093E9008091F2009FBF90E0019636
:1005000008959FB7F89482E08093E9008091F2000B
:100510009FBF90E00895089580E090E008958231B3
:1005200008F08251E82FF0E0E455FF4FE49180910C
:100530007B00E3FB222720F930E095E0220F331FF8
:100540009A95E1F78F7D282B20937B00E770E0647C
:10055000E0937C0080917A00806480937A0080919F
:100560007A0086FDFCCF809178002091790090E0A0
:10057000922B08953FB7F89480912D0190912E0110
:10058000A0912F01B091300126B5A89B05C02F3F47
:1005900019F00196A11DB11D3FBFBA2FA92F982FA9
:1005A0008827820F911DA11DB11DBC01CD0142E024
:1005B000660F771F881F991F4A95D1F708958F926C
:1005C0009F92AF92BF92CF92DF92EF92FF926B0118
:1005D0007C010E94BA024B015C01C114D104E10408
:1005E000F104F1F00E94BA02DC01CB0188199909EB
:1005F000AA09BB09883E9340A105B10570F321E02B
:10060000C21AD108E108F10888EE880E83E0981E2E
:10061000A11CB11CC114D104E104F10419F7DDCF10
:10062000FF90EF90DF90CF90BF90AF909F908F9012
:1006300008958F929F92AF92BF92CF92DF92EF92E6
:10064000FF920F931F93CF93DF935C016B017A01AD
:1006500080910B01882309F45BC0809148018823B5
:1006600009F456C08091370180FF05C08091E000F9
:1006700082608093E000E70110E00AEF83E0882EBB
:100680009AE3992E2097D9F10E94E90081110AC0BE
:10069000015009F43DC061E070E080E090E00E940C
:1006A000DF02F0CF282F30E0C217D3070CF48C2FD5
:1006B0004FB7F8948092E9009091E80095FF1DC033
:1006C000282F30E0C21BD30BF601982F915020F059
:1006D00081918093F100FACFC20ED31E112319F03D
:1006E0009092E80009C08091E80085FD06C09092D4
:1006F000E80011E0209709F010E04FBFC3CF1111BF
:10070000C3CF5D9884E6809335011E141F0444F026
:1007100081E090E0F5019383828380E090E001C066
:10072000C701DF91CF911F910F91FF90EF90DF9064
:10073000CF90BF90AF909F908F900895BC0100978D
:1007400091F0FC0101900020E9F73197AF01481BBF
:10075000590BE0914901F0914A010280F381E02DAB
:1007600089E491E0099480E090E008958F929F924F
:10077000AF92BF92CF92DF92EF92FF920F931F93AF
:10078000CF93DF93CDB7DEB7A1970FB6F894DEBF56
:100790000FBECDBF6C01990FEE08FF08F7FE31C008
:1007A000E0914901F0914A010190F081E02D6DE264
:1007B00089E491E009958C0122273327A9012C199E
:1007C0003D094E095F0919A2CE0181967C019AE08C
:1007D000892E912CA12CB12CCA01B901A50194013B
:1007E0000E946B09605DF70162937F01211531055D
:1007F0004105510589F7CF010E949E03080F191F7B
:100800001EC0A701960119A28E010F5D1F4F8AE03D
:10081000C82ED12CE12CF12CCA01B901A7019601F7
:100820000E946B09605DF80162938F01211531050B
:100830004105510589F7CF010E949E038C0185E295
:1008400091E00E949E03800F911FA1960FB6F8942D
:10085000DEBF0FBECDBFDF91CF911F910F91FF90F3
:10086000EF90DF90CF90BF90AF909F908F900895C2
:100870000E9493091F920F920FB60F9211248F932B
:100880009F938091E1009091E100937F9093E1002C
:1008900083FF0FC01092E90091E09093EB0010925B
:1008A000EC0092E39093ED001092480198E0909351
:1008B000F00082FF20C093E09093E9009091F20055
:1008C000992319F09AE39093E800909135019923C8
:1008D00039F090913501915090933501992389F128
:1008E00090914701992339F090914701915090934D
:1008F0004701992341F184FF10C08091E2008E7E70
:1009000081608093E2008091E1008F7E8093E1001E
:10091000809137018E7E806111C080FF16C080916A
:10092000E2008E7E80618093E2008091E1008E7E05
:100930008093E100809137018E7E81608093370142
:1009400004C05D9ACDCF289AD6CF9F918F910F90FA
:100950000FBE0F901F9018951F920F920FB60F9217
:100960001124CF92DF92EF92FF920F931F932F9358
:100970003F934F935F936F937F938F939F93AF9327
:10098000BF93EF93FF93CF93DF93CDB7DEB76C9711
:10099000DEBFCDBF1092E9008091E80083FFEDC17A
:1009A00068E0CE0145960E94D20182EF8093E80074
:1009B0008D8987FF05C09091E80090FFFCCF03C0B0
:1009C0009EEF9093E800982F907609F0C6C09E891C
:1009D0002F89188D91110CC0803829F4809138012D
:1009E0008093F10002C01092F1001092F10048C112
:1009F000422F50E0512B913051F4811141C14130CF
:100A0000510509F03DC1809138018D7F0BC09330B5
:100A100061F4811135C14130510509F031C1809136
:100A200038018260809338012BC1953041F4809168
:100A3000E80080FFFCCF20682093E30021C19630BE
:100A400009F05FC0EB8CFC8C1092E900109234012D
:100A500010923301123091F510923201109231014F
:100A60000E94A00199E0BE016F5F7F4FDB01E92F7B
:100A70001D92EA95E9F799831A8391E09E8390EAA3
:100A800098879AEF99872091330130913401275F3D
:100A90003F4F3C832B838D831092E90010923401E9
:100AA00010923301F0923201E092310149E050E0BE
:100AB00080E00E9479010E94A001E2C0F092320120
:100AC000E09231010E94FA00DC011296ED90FC9058
:100AD0001397E114F10409F4C0C0D701ED91FC9122
:100AE0000480F581E02DBE016B5E7F4FC701099543
:100AF000009719F00CF0C4C0C7C0F701E084F1847E
:100B0000E8CF973009F4C0C0983021F481E0809399
:100B1000F100B6C0993009F0B3C0837009F0B4C0D9
:100B2000EFE1F1E081E021E036E39081992361F08B
:100B30008093E9002093EB0091919093EC00309327
:100B4000ED008F5F873089F78EE78093EA0010927F
:100B5000EA008F898093480193C08B8D9C8D109201
:100B6000E900109234011092330190933201809386
:100B70003101898D811156C08E899D89913A59F430
:100B8000813209F081C047E050E064E071E080E02C
:100B90000E94790175C0913209F076C0833289F4E0
:100BA000888D90E0982F88272F89822BA0E0B0E0D5
:100BB0008093000190930101A0930201B09303017F
:100BC0005FC0803269F48091E80082FFFCCF67E06B
:100BD00084E091E00E94D2018BEF8093E80006C090
:100BE000823209F04DC08F8980930B0180913601CC
:100BF000882319F0EEEFFAE002C0E0E0F8E080911F
:100C0000040190910501A0910601B0910701803B7C
:100C10009440A105B10509F07BC080910B0180FFD4
:100C200093C076C00E94FA00DC0112960D911C91CF
:100C300013970115110541F1D801ED91FC91019037
:100C4000F081E02DBE016B5E7F4FC80109958111D7
:100C500017C0F80100851185ECCF113009F44EC0A2
:100C6000133091F48F89882309F445C0823081F4D0
:100C700040E86BE08CE191E00E943C01882321F088
:100C80008EEF8093E80079C081E28093EB0075C01D
:100C9000813029F440E86BE080E191E0EDCF8330D2
:100CA00099F70E94FA00DC011296ED90FC901397E0
:100CB0008E010F5F1F4F6801E114F10479F0D70135
:100CC000ED91FC910680F781E02DB801C7010995EF
:100CD000080F111DF701E084F184EECFD8011C92BA
:100CE000F60101900020E9F73197BF016C197D09E9
:100CF00040E0C601C1CF6AEF70E002C06EEF70E065
:100D00006115710509F2FB01449150E080E840CF84
:100D10000FB6F894A8958091600088618093600078
:100D2000109260000FBEA895EE3F2AE0F20739F05E
:100D30008091FE0A9091FF0A91838083A1CF109247
:100D4000FF0A1092FE0A9CCFEE3F8AE0F80731F0CE
:100D5000808191819093FF0A8093FE0A87E797E74D
:100D6000918380839BE088E10FB6F894A8958093E7
:100D700060000FBE9093600083CF6C960FB6F8941E
:100D8000DEBF0FBECDBFDF91CF91FF91EF91BF913D
:100D9000AF919F918F917F916F915F914F913F9113
:100DA0002F911F910F91FF90EF90DF90CF900F90B8
:100DB0000FBE0F901F9018951F920F920FB60F92B3
:100DC00011242F933F938F939F93AF93BF93809161
:100DD000290190912A01A0912B01B0912C01309111
:100DE000280123E0230F2D3720F40196A11DB11D0A
:100DF00005C026E8230F0296A11DB11D20932801EE
:100E00008093290190932A01A0932B01B0932C0188
:100E100080912D0190912E01A0912F01B091300170
:100E20000196A11DB11D80932D0190932E01A093D9
:100E30002F01B0933001BF91AF919F918F913F915E
:100E40002F910F900FBE0F901F901895789484B536
:100E5000826084BD84B5816084BD85B5826085BDB6
:100E600085B5816085BD80916E00816080936E0044
:100E70001092810080918100826080938100809136
:100E800081008160809381008091800081608093E7
:100E90008000809191008260809391008091910008
:100EA0008160809391008091900081608093900098
:100EB0008091C10084608093C1008091C1008260F4
:100EC0008093C1008091C10081608093C1008091B6
:100ED000C30081608093C3008091C00082608093D2
:100EE000C0008091C20081608093C20080917A002E
:100EF000846080937A0080917A00826080937A0087
:100F000080917A00816080937A0080917A00806875
:100F100080937A00109248011092380110923701A4
:100F20008091D70081608093D70080EA8093D800B9
:100F300089B5806189BD89B5826089BD09B400FE2B
:100F4000FDCF61E070E080E090E00E94DF028091E0
:100F5000D8008F7C80618093D8008091E000807FF2
:100F60008093E0008091E1008E7E8093E1008DE02F
:100F70008093E200559A209AEEEFFFE785919491D5
:100F80008B3F9C4D19F481E0809336018FEF9FEFEA
:100F9000909356018093550100E010E082E10E9499
:100FA0008F02EC0183E10E948F02BE01681B790B66
:100FB000072E000C880B990B0E9449082AE038E2A2
:100FC00040EA5BE30E94AD086B017C012DEC3CEC38
:100FD0004CEC5DE30E94A80818164CF4809139018E
:100FE00090913A01019690933A0180933901809152
:100FF000390190913A018130910571F481E090E0DE
:101000000E94B6038091390190913A010196909324
:101010003A018093390114C0029794F02DEC3CEC16
:101020004CEC5DE3C701B6010E944208181644F07B
:1010300010923A011092390180E090E00E94B603CC
:101040006CED75E080E090E00E94DF020115110573
:1010500009F4A4CF0E940000A1CFE9E4F1E01382DB
:10106000128288EE93E0A0E0B0E084839583A683AB
:10107000B78380E191E0918380838FEF9FEF958725
:10108000848708950E94840808F481E00895E89414
:1010900009C097FB3EF490958095709561957F4FC0
:1010A0008F4F9F4F9923A9F0F92F96E9BB2793956E
:1010B000F695879577956795B795F111F8CFFAF47E
:1010C000BB0F11F460FF1BC06F5F7F4F8F4F9F4FAF
:1010D00016C0882311F096E911C0772321F09EE80D
:1010E000872F762F05C0662371F096E8862F70E073
:1010F00060E02AF09A95660F771F881FDAF7880F4D
:101100009695879597F90895990F0008550FAA0BA2
:10111000E0E8FEEF16161706E807F907C0F012160A
:101120001306E407F50798F0621B730B840B950B0D
:1011300039F40A2661F0232B242B252B21F4089562
:101140000A2609F4A140A6958FEF811D811D0895FF
:101150000E94840808F48FEF08950E94C0080C9440
:1011600031090E94230938F00E942A0920F09523B2
:1011700011F00C941A090C94200911240C9465099F
:101180000E94420970F3959FC1F3950F50E0551FDF
:10119000629FF001729FBB27F00DB11D639FAA27CC
:1011A000F00DB11DAA1F649F6627B00DA11D661F1B
:1011B000829F2227B00DA11D621F739FB00DA11D3C
:1011C000621F839FA00D611D221F749F3327A00DF6
:1011D000611D231F849F600D211D822F762F6A2F92
:1011E00011249F5750409AF0F1F088234AF0EE0FF7
:1011F000FF1FBB1F661F771F881F91505040A9F724
:101200009E3F510580F00C941A090C9465095F3FCC
:10121000E4F3983ED4F3869577956795B795F7955F
:10122000E7959F5FC1F7FE2B880F911D96958795D7
:1012300097F9089597F99F6780E870E060E0089556
:101240009FEF80EC089500240A94161617061806DE
:101250000906089500240A941216130614060506BA
:101260000895092E0394000C11F4882352F0BB0F4B
:1012700040F4BF2B11F460FF04C06F5F7F4F8F4FAE
:101280009F4F089557FD9058440F551F59F05F3FE9
:1012900071F04795880F97FB991F61F09F3F79F098
:1012A00087950895121613061406551FF2CF46951A
:1012B000F1DF08C0161617061806991FF1CF86959C
:1012C0007105610508940895E894BB276627772780
:1012D000CB0197F90895A1E21A2EAA1BBB1BFD01B1
:1012E0000DC0AA1FBB1FEE1FFF1FA217B307E40705
:1012F000F50720F0A21BB30BE40BF50B661F771F5D
:10130000881F991F1A9469F760957095809590953C
:101310009B01AC01BD01CF010895EE0FFF1F0590A9
:10132000F491E02D099481E090E0F8940C949809F0
:04133000F894FFCF5F
:10133400FFFFFFFF00E100000000000000000000CC
:101344000A0219032B02200271022F024D0200C16E
:0813540080810000000D0A0079
:00000001FF
